:020000040800F2
:100000000000022025140008190400081B04000841
:100010001D0400081F04000821040008000000005F
:1000200000000000000000000000000023040008A1
:100030002504000800000000270400082904000827
:10004000751400087514000875140008751400086C
:10005000751400087514000875140008751400085C
:10006000751400087514000875140008751400084C
:10007000751400087514000875140008751400083C
:10008000751400087514000875140008751400082C
:10009000751400087514000875140008751400081C
:1000A000751400087514000875140008751400080C
:1000B00075140008751400087514000875140008FC
:1000C00075140008751400087514000875140008EC
:1000D00075140008751400087514000875140008DC
:1000E000751400087514000800000000751400085D
:1000F00075140008751400087514000875140008BC
:1001000075140008751400087514000875140008AB
:10011000751400087514000875140008751400089B
:10012000751400087514000875140008751400088B
:10013000751400087514000875140008751400087B
:1001400000000000000000000000000000000000AF
:10015000751400087514000875140008751400085B
:10016000751400087514000875140008751400084B
:1001700075140008751400087514000800000000CC
:10018000751400087514000875140008751400082B
:10019000751400087514000875140008751400081B
:1001A000751400087514000875140008751400080B
:1001B00075140008751400087514000875140008FB
:1001C00075140008751400087514000875140008EB
:1001D00075140008751400087514000875140008DB
:1001E00075140008751400087514000875140008CB
:1001F00075140008751400087514000875140008BB
:1002000075140008751400087514000875140008AA
:10021000751400087514000875140008751400089A
:10022000751400087514000875140008000000001B
:10023000751400087514000800000000751400080B
:10024000751400087514000875140008751400086A
:10025000751400087514000875140008751400085A
:10026000751400087514000875140008751400084A
:1002700075140008751400087514000800000000CB
:1002800075140008751400087514000800000000BB
:080290000000000075140008D5
:1002980010B5054C237833B9044B13B10448AFF3B8
:1002A80000800123237010BD100000200000000012
:1002B800D014000808B5034B1BB103490348AFF33A
:1002C800008008BD0000000014000020D0140008C1
:1002D80030B587B0002401940294039404940594E3
:1002E8000F4BD3F8E02042F01002C3F8E020D3F817
:1002F800E03003F010030093009B0A4D01226021B7
:10030800284600F065FF60230193012302930394BC
:10031800049401A9284600F05DFE07B030BD00BF77
:10032800004402580010025872B6FEE700B59DB0AE
:100338004C22002109A801F0BFF82022002101A8C1
:1003480001F0BAF8022000F053FF00230093254B78
:10035800DA6A22F00102DA62DB6A03F00103009331
:10036800214B9A6942F440429A619B6903F44043E5
:100378000093009B1C4B9B6913F4005FFAD0022387
:10038800099301220C9240220D921293002213929B
:1003980004211491322115911693179318930C2365
:1003A80019931A921B9209A800F0ACF8B0B93F2330
:1003B8000193032302930023039308230493402308
:1003C800059306934FF4806207920893022101A8CF
:1003D80000F0B6FC20B91DB05DF804FBFFF7A4FFE0
:1003E800FFF7A2FF000400580048025808B500F0C3
:1003F80051FFFFF79BFFFFF76BFF4FF4FA7000F018
:1004080089FF4021014800F0E9FEF6E70010025894
:10041800FEE7FEE7FEE7FEE7FEE770477047704736
:1004280008B500F065FF08BD82B0074BD3F8F4208B
:1004380042F00202C3F8F420D3F8F43003F00203C8
:100448000193019B02B07047004402580649CB68EB
:1004580023F4E0631B041B0C000200F4E060034378
:10046800024A1A43CA60704700ED00E00000FA052E
:1004780000B5174BDB68C3F30223C3F1070CBCF1CB
:10048800040F28BF4FF0040C03F1040EBEF1060F51
:1004980014D9033B4FF0FF3E0EFA0CFC21EA0C0185
:1004A80099400EFA03F322EA03031943002807DBF5
:1004B8000901C9B2074B19545DF804FB0023E9E7A9
:1004C80000F00F000901C9B2034B1954F4E700BF4B
:1004D80000ED00E000E400E014ED00E00138B0F1C8
:1004E800807F0BD24FF0E0235861054AF02182F853
:1004F80023100020986107221A6170470120704775
:1005080000ED00E0002800F0028338B504460368D7
:1005180013F0010F25D09C4A136903F03803926A3F
:10052800102B15D0182B0FD06368B3F5803F3FD040
:10053800002B53D1944B1A6822F480321A601A683F
:1005480022F480221A6038E002F00302022AEBD17A
:100558008D4B1B6813F4003F03D06368002B00F039
:10056800D882236813F0020F00F08B80864A136943
:10057800926A13F038035AD0182B55D0E368002B31
:1005880000F0C88080490A6822F0190213430B6002
:1005980000F0BAFE05467C4B1B6813F0040F40F0D0
:1005A800978000F0B1FE401B0228F4D90320B7E27F
:1005B800754A136843F48033136063682BB300F003
:1005C800A3FE0546704B1B6813F4003FC9D100F029
:1005D8009BFE401B6428F5D90320A1E2B3F5A02FA8
:1005E80009D0694B1A6822F480321A601A6822F41A
:1005F80080221A60E1E7644B1A6842F480221A608C
:100608001A6842F480321A60D7E700F07DFE05468A
:100618005D4B1B6813F4003FA3D000F075FE401B30
:100628006428F5D903207BE212F0030FA6D1564BBC
:100638001B6813F0040F03D0E368002B00F06B82F3
:1006480000F07CFE41F20303984212D82269402A46
:1006580007D04D494B6823F47C3343EA02334B609F
:100668000FE0494A536823F47C3343F40033536062
:1006780007E0454A536823F0FE43216943EA0163D2
:100688005360236813F0100F00F088803E4A136906
:1006980003F03803926A082B54D0182B4ED0E36924
:1006A800002B00F0B880384A136843F080031360C9
:1006B80000F02AFE0546344B1B6813F4807F40F097
:1006C800888000F021FE401B0228F4D9032027E28D
:1006D80000F034FE41F20303984212D82269402AFE
:1006E80007D029494B6823F47C3343EA02334B6033
:1006F800C7E7254A536823F47C3343F40033536037
:10070800BFE7214A536823F0FE43216943EA0163A6
:100718005360B6E71C4A136823F00103136000F026
:10072800F3FD0546184B1B6813F0040FA9D000F021
:10073800EBFD401B0228F5D90320F1E102F003028A
:10074800012AACD1104B1B6813F4807F03D0E369F6
:10075800802B40F0E28100F0F1FD41F20303984262
:1007680014D8226A202A07D007494B6823F0F84397
:1007780043EA82634B6011E0034A536823F0F8436D
:1007880043F08043536009E0004402589A4AD36812
:1007980023F07C53216A43EA0163D360236813F092
:1007A800080F60D06369002B49D0934A536F43F018
:1007B8000103536700F0A8FD05468F4B5B6F13F0EC
:1007C800020F50D100F0A0FD401B0228F5D90320EC
:1007D800A6E100F0B3FD41F20303984212D8226A61
:1007E800202A07D084494B6823F0F84343EA826300
:1007F8004B60D3E7804A536823F0F84343F08043C3
:100808005360CBE77C4AD36823F07C53216A43EAE0
:100818000163D360C2E7784A136823F0800313604A
:1008280000F072FD0546744B1B6813F4807FB5D049
:1008380000F06AFD401B0228F5D9032070E16E4ADA
:10084800536F23F00103536700F05EFD05466A4BC2
:100858005B6F13F0020F06D000F056FD401B022814
:10086800F5D903205CE1236813F0200F29D0A36990
:100878009BB1614A136843F48053136000F044FD50
:1008880005465D4B1B6813F4005F1AD100F03CFD70
:10089800401B0228F5D9032042E1574A136823F484
:1008A8008053136000F030FD0546534B1B6813F46A
:1008B800005F06D000F028FD401B0228F5D9032070
:1008C8002EE1236813F0040F21D1636A002B00F096
:1008D8002681494A126902F03802182A00F0EE808F
:1008E800022B75D0444A136823F08073136000F01C
:1008F8000BFD0446404B1B6813F0007F00F0DC80C2
:1009080000F002FD001B0228F4D9032008E13B4A4D
:10091800136843F48073136000F0F6FC0546374B08
:100928001B6813F4807F06D100F0EEFC401B64289E
:10093800F5D90320F4E0A368012B0AD00BBB2E4B9A
:100948001A6F22F001021A671A6F22F004021A675E
:1009580004E0294A136F43F001031367A36833B314
:1009680000F0D2FC0546244B1B6F13F0020FACD1EC
:1009780000F0CAFC401B41F288339842F3D90320A7
:10098800CEE0052B09D01C4B1A6F22F001021A6722
:100998001A6F22F004021A67E0E7174B1A6F42F049
:1009A80004021A671A6F42F001021A67D6E700F0CC
:1009B800ABFC0546104B1B6F13F0020F85D000F0FF
:1009C800A3FC401B41F288339842F3D90320A7E0E7
:1009D800094A136823F08073136000F095FC0546FC
:1009E800054B1B6813F0007F0AD000F08DFC401BFC
:1009F8000228F5D9032093E0004402580048025821
:100A08004F4B996A4F4A0A40A16AE06A41EA0011CD
:100A18000A439A62226B013AC2F30802616B0139F8
:100A2800490289B20A43A16B0139090401F4FE01A4
:100A38000A43E16B0139090601F0FE410A431A63D2
:100A4800DA6A22F00102DA62596B3F4A0A40A16C65
:100A580042EAC1025A63DA6A22F00C02216C0A43A4
:100A6800DA62DA6A22F00202616C0A43DA62DA6A4E
:100A780042F48032DA62DA6A42F40032DA62DA6A1E
:100A880042F48022DA62DA6A42F00102DA621A6813
:100A980042F080721A6000F037FC0446284B1B684D
:100AA80013F0007F06D100F02FFC001B0228F5D9B7
:100AB800032035E0002033E0002031E0204A916A2D
:100AC800106B012B2DD001F00303A26A93422AD1A7
:100AD800C1F30511E36A994227D1C0F30802236BD9
:100AE800013B9A4223D1C0F34622636B013B9A42F1
:100AF8001FD1C0F30642A36B013B9A421BD1C0F33E
:100B08000660E36B013B984217D1002008E0012002
:100B18007047012004E0012002E0012000E00020ED
:100B280038BD0120FCE70120FAE70120F8E70120A1
:100B3800F6E70120F4E70120F2E70120F0E700BF23
:100B4800004402580CFCFFFF0700FFFF744B1B69B1
:100B580003F03803102B00F0DE80182B10D00BB1F7
:100B6800704870476E4B1B6813F0200F00F0D5805B
:100B78006B4B1868C0F3C1006B4B23FA00F0704749
:100B880010B4674A916A01F00301946AC4F305102E
:100B9800D36A03F0010C536BC3F3CC030CFB03F3D0
:100BA80007EE903AF8EE677A14F47C7F00F09380B1
:100BB800012965D0022900F09180E1B107EE100A01
:100BC800F8EE476A9FED596A86EE267A544B1B6BFE
:100BD800C3F3080306EE903AF8EE666A9FED546A8E
:100BE80067EE867A76EEA77AF7EE006A77EEA67A4F
:100BF80027EE277A60E0136813F0200F23D0114600
:100C08001268C2F3C102484BD34007EE103AF8EE1F
:100C1800476A07EE100AB8EE476A86EE867A0B6BCB
:100C2800C3F3080306EE903AF8EE666A9FED406A51
:100C380067EE867A76EEA77AF7EE006A77EEA67AFE
:100C480027EE277A38E007EE100AF8EE476A9FED9C
:100C5800396A86EE267A324B1B6BC3F3080306EE1D
:100C6800903AF8EE666A9FED326A67EE867A76EE1B
:100C7800A77AF7EE006A77EEA67A27EE277A1BE0C6
:100C880007EE100AF8EE476A9FED286A86EE267A84
:100C9800234B1B6BC3F3080306EE903AF8EE666A23
:100CA8009FED236A67EE867A76EEA77AF7EE006AFA
:100CB80077EEA67A27EE277A194B1B6BC3F34623E8
:100CC800013307EE903AF8EE677AC7EE276AFCEE32
:100CD800E67A17EE900A5DF8044B704707EE100AA3
:100CE800F8EE476A9FED146A86EE267A0C4B1B6B6A
:100CF800C3F3080306EE903AF8EE666A9FED0C6AB5
:100D080067EE867A76EEA77AF7EE006A77EEA67A2D
:100D180027EE277AD0E7094870470348704700BF95
:100D28000044025800093D000090D0030024744A92
:100D3800000000390024744C20BCBE4B40787D0173
:100D4800002800F0328170B50D4604469B4B1B68A5
:100D580003F00F038B420BD2984A136823F00F035A
:100D68000B431360136803F00F038B4240F01F819D
:100D7800236813F0040F0CD02269914B9B6903F090
:100D880070039A4205D98E498B6923F070031A4380
:100D98008A61236813F0080F0CD06269884BDB69FD
:100DA80003F070039A4205D98549CB6923F0700393
:100DB8001A43CA61236813F0100F0CD0A269804B44
:100DC800DB6903F4E0639A4205D97D49CB6923F4D2
:100DD800E0631A43CA61236813F0200F0CD0E2695C
:100DE800774B1B6A03F070039A4205D974490B6A62
:100DF80023F070031A430A62236813F0020F0CD021
:100E0800E2686F4B9B6903F00F039A4205D96C495E
:100E18008B6923F00F031A438A61236813F0010FCB
:100E280041D0674A936923F47063A1680B439361C7
:100E38006368022B0AD0032B27D0012B2CD0604AE1
:100E4800126812F0040F06D10120ADE0126812F406
:100E5800003F00F0AE805A490A6922F007021343A6
:100E68000B6100F051FA0646554B1B6903F0380335
:100E78006268B3EBC20F16D000F046FA801B41F24D
:100E880088339842F0D903208EE04D4A126812F058
:100E9800007FE0D1012087E0494A126812F4807F80
:100EA800D9D1012080E0236813F0020F0CD0E2684A
:100EB800434B9B6903F00F039A4205D240498B6963
:100EC80023F00F031A438A613C4B1B6803F00F039E
:100ED800AB420AD9394A136823F00F032B43136036
:100EE800136803F00F03AB4265D1236813F0040FB6
:100EF8000CD02269324B9B6903F070039A4205D2E9
:100F08002F498B6923F070031A438A61236813F011
:100F1800080F0CD062692A4BDB6903F070039A4210
:100F280005D22749CB6923F070031A43CA612368A5
:100F380013F0100F0CD0A269214BDB6903F4E063B6
:100F48009A4205D21E49CB6923F4E0631A43CA6169
:100F5800236813F0200F0CD0E269194B1B6A03F0C9
:100F680070039A4205D216490B6A23F070031A439C
:100F78000A62FFF7EBFD12498B69C3F30323114A99
:100F8800D35C03F01F03D8408B6903F00F03D35CD5
:100F980003F01F0320FA03F30B4A13600B4B18608E
:100FA8000B4B186800F04EF970BD01207047012006
:100FB800FAE70120F8E70120F6E700BF0020005219
:100FC80000440258E81400080C0000200800002023
:100FD80004000020F0B583B0002340E0092400E0BD
:100FE8000024B44044EA0C040235764E46F8254005
:100FF8004FF0B044D4F88050D44325EA02064F6835
:1010080017F4803F01D042EA05064FF0B045C5F815
:101018008060D5F8845004EA05064F6817F4003F4D
:1010280001D042EA05064FF0B045C5F884602D6846
:1010380004EA05064F6817F4801F01D042EA050646
:101048004FF0B0452E606D682C404E6816F4001FB6
:1010580001D042EA05044FF0B042546001330A68F7
:1010680032FA03F400F0AB804FF0010C0CFA03FCE9
:101078001CEA0202F2D04C68651E112C18BF012D23
:1010880001D9122C13D185685E000324B44025EAE7
:101098000405CC68B4402C438460446824EA0C0CF2
:1010A8004C68C4F300149C4044EA0C044460C668CD
:1010B8004FEA430C032505FA0CF5EC4326EA050E26
:1010C8008D6805FA0CF545EA0E05C5604D68122DC8
:1010D80018BF022D12D1DE08083650F8267003F02A
:1010E80007054FEA850E0F2505FA0EF527EA0507CD
:1010F8000D6905FA0EF53D4340F826500568254070
:101108004C6804F0030404FA0CF42C4304604C68A3
:1011180014F0805FA2D02C4CD4F8F45045F00205AE
:10112800C4F8F450D4F8F44004F002040194019C8B
:101138009D08AE1C234C54F8267003F00304A60047
:101148000F24B44027EA040C204CA0423FF448AFD7
:1011580004F58064A04222D004F58064A04220D027
:1011680004F58064A0421ED004F58064A0421CD01F
:1011780004F58064A0421AD004F58064A04218D017
:1011880004F58064A04216D004F58064A04214D00F
:1011980004F58064A0423FF421AF0A2421E701242A
:1011A8001FE702241DE703241BE7042419E705248D
:1011B80017E7062415E7072413E7082411E703B007
:1011C800F0BD00BF00040058004402580000025857
:1011D8000AB181617047090481617047436901EA76
:1011E800030221EA030141EA0241816170470000DC
:1011F800134BDB6813F0040F07D1114BDB6803F0C6
:10120800070383421AD00120704710B50C4AD368EF
:1012180023F007031843D06000F076F80446084B23
:101228005B6813F4005F07D100F06EF8001BB0F59F
:101238007A7FF4D9012000E0002010BD002070471B
:1012480000480258104B1B780BB90120704710B5A5
:1012580004464FF47A70B0FBF3F30C4A1068B0FB05
:10126800F3F0FFF73BF968B90F2C01D901200AE028
:10127800002221464FF0FF30FFF7FAF8044B1C60BC
:10128800002000E0012010BD000000200800002020
:101298000400002010B50320FFF7D8F8FFF756FC2C
:1012A8000F498B69C3F303230E4AD35C03F01F0372
:1012B800D8408B6903F00F03D35C03F01F0320FAB7
:1012C80003F3094A1360094B18600020FFF7BAFFBF
:1012D80010B10124204610BD0446FFF7A5F8F9E730
:1012E80000440258E81400080C0000200800002000
:1012F800034B1B78034A11680B441360704700BF07
:10130800000000202C000020014B1868704700BF27
:101318002C00002038B50446FFF7F6FF0546B4F167
:10132800FF3F02D0044B1B781C44FFF7EDFF401B26
:10133800A042FAD338BD00BF00000020014B186856
:10134800000C70470010005C294AD2F8883043F43A
:101358007003C2F88830274B1B6803F00F03062B75
:1013680006D8244A136823F00F0343F007031360D9
:10137800214B1A6842F001021A6000221A611968AA
:101388001E4A0A401A601B4B1B6813F0080F06D050
:10139800184A136823F00F0343F007031360164B32
:1013A80000229A61DA611A62154999621549D9626F
:1013B800154919635A639963DA6319645A64196899
:1013C80021F4802119601A66104B1A68104B1340DB
:1013D800B3F1005F03D20F4B0122C3F808210E4B73
:1013E80043F2D2021A60024B4FF000629A607047D3
:1013F80000ED00E000200052004402587FEDF6EABC
:10140800000202020000FF01800201010010005CDE
:101418000000FFFF0080005100400052DFF834D088
:10142800FFF792FF0C480D490D4A002302E0D458FB
:10143800C4500433C4188C42F9D30A4A0A4C002316
:1014480001E013600432A242FBD300F011F8FEF76A
:10145800CDFF70470000022000000020100000208F
:10146800001500081000002030000020FEE70000F2
:1014780070B50D4D0D4C641BA4100026A64209D171
:101488000B4D0C4C00F020F8641BA4100026A6425B
:1014980005D170BD55F8043B98470136EEE755F87D
:1014A800043B98470136F2E7F8140008F8140008DE
:1014B800F8140008FC14000802440346934200D1C3
:1014C800704703F8011BF9E7F8B500BFF8BC08BC82
:1014D8009E467047F8B500BFF8BC08BC9E467047EA
:1014E80000000000010203040102030406070809C2
:0414F800BD02000829
:0414FC009902000849
:1015000001000000100000000090D0030090D00304
:0400000508001425B6
:00000001FF
